{
  "contractName": "TodoList",
  "abi": [
    {
      "constant": false,
      "inputs": [
        {
          "name": "_title",
          "type": "string"
        }
      ],
      "name": "newList",
      "outputs": [
        {
          "name": "",
          "type": "bool"
        },
        {
          "name": "",
          "type": "string"
        }
      ],
      "payable": false,
      "stateMutability": "nonpayable",
      "type": "function"
    },
    {
      "constant": false,
      "inputs": [
        {
          "name": "_listID",
          "type": "uint256"
        },
        {
          "name": "_description",
          "type": "string"
        },
        {
          "name": "_timestamp",
          "type": "uint256"
        }
      ],
      "name": "newItem",
      "outputs": [
        {
          "name": "",
          "type": "bool"
        },
        {
          "name": "",
          "type": "string"
        },
        {
          "name": "",
          "type": "uint256"
        }
      ],
      "payable": false,
      "stateMutability": "nonpayable",
      "type": "function"
    },
    {
      "constant": true,
      "inputs": [],
      "name": "getListIDs",
      "outputs": [
        {
          "name": "",
          "type": "uint256[]"
        }
      ],
      "payable": false,
      "stateMutability": "view",
      "type": "function"
    },
    {
      "constant": true,
      "inputs": [
        {
          "name": "_id",
          "type": "uint256"
        }
      ],
      "name": "getList",
      "outputs": [
        {
          "name": "",
          "type": "string"
        },
        {
          "name": "",
          "type": "uint256[]"
        }
      ],
      "payable": false,
      "stateMutability": "view",
      "type": "function"
    },
    {
      "constant": true,
      "inputs": [
        {
          "name": "_listID",
          "type": "uint256"
        }
      ],
      "name": "getItemIDs",
      "outputs": [
        {
          "name": "",
          "type": "uint256[]"
        }
      ],
      "payable": false,
      "stateMutability": "view",
      "type": "function"
    },
    {
      "constant": true,
      "inputs": [
        {
          "name": "_listID",
          "type": "uint256"
        },
        {
          "name": "_itemID",
          "type": "uint256"
        }
      ],
      "name": "getItem",
      "outputs": [
        {
          "name": "",
          "type": "string"
        },
        {
          "name": "",
          "type": "uint256"
        },
        {
          "name": "",
          "type": "bool"
        }
      ],
      "payable": false,
      "stateMutability": "view",
      "type": "function"
    },
    {
      "constant": false,
      "inputs": [
        {
          "name": "_id",
          "type": "uint256"
        },
        {
          "name": "_title",
          "type": "string"
        }
      ],
      "name": "updateList",
      "outputs": [
        {
          "name": "",
          "type": "string"
        },
        {
          "name": "",
          "type": "uint256[]"
        }
      ],
      "payable": false,
      "stateMutability": "nonpayable",
      "type": "function"
    },
    {
      "constant": false,
      "inputs": [
        {
          "name": "list_id",
          "type": "uint256"
        },
        {
          "name": "item_id",
          "type": "uint256"
        },
        {
          "name": "_description",
          "type": "string"
        }
      ],
      "name": "updateItem",
      "outputs": [
        {
          "name": "",
          "type": "string"
        }
      ],
      "payable": false,
      "stateMutability": "nonpayable",
      "type": "function"
    },
    {
      "constant": false,
      "inputs": [
        {
          "name": "_list_id",
          "type": "uint256"
        },
        {
          "name": "_item_id",
          "type": "uint256"
        }
      ],
      "name": "deleteItem",
      "outputs": [
        {
          "name": "",
          "type": "bool"
        }
      ],
      "payable": false,
      "stateMutability": "nonpayable",
      "type": "function"
    },
    {
      "constant": false,
      "inputs": [
        {
          "name": "_ID",
          "type": "uint256"
        }
      ],
      "name": "deleteList",
      "outputs": [
        {
          "name": "",
          "type": "bool"
        }
      ],
      "payable": false,
      "stateMutability": "nonpayable",
      "type": "function"
    },
    {
      "constant": false,
      "inputs": [
        {
          "name": "_list_id",
          "type": "uint256"
        },
        {
          "name": "_item_id",
          "type": "uint256"
        }
      ],
      "name": "toggleItem",
      "outputs": [
        {
          "name": "",
          "type": "bool"
        }
      ],
      "payable": false,
      "stateMutability": "nonpayable",
      "type": "function"
    }
  ],
  "bytecode": "0x608060405234801561001057600080fd5b506113d8806100206000396000f3fe6080604052600436106100af576000357c0100000000000000000000000000000000000000000000000000000000900463ffffffff168063177d4ca6146100b45780631ab5b383146101945780632150c75d1461029057806359cc334a14610384578063618a7e1d14610454578063797adbde146104b157806391ed9fa214610504578063ab98857414610697578063b8226f68146107ec578063b827906a1461087c578063dda3d926146108d9575b600080fd5b3480156100c057600080fd5b5061017a600480360360208110156100d757600080fd5b81019080803590602001906401000000008111156100f457600080fd5b82018360208201111561010657600080fd5b8035906020019184600183028401116401000000008311171561012857600080fd5b91908080601f016020809104026020016040519081016040528093929190818152602001838380828437600081840152601f19601f820116905080830192505050505050509192919290505050610945565b604051808215151515815260200191505060405180910390f35b3480156101a057600080fd5b506101cd600480360360208110156101b757600080fd5b81019080803590602001909291905050506109ba565b604051808060200180602001838103835285818151815260200191508051906020019080838360005b838110156102115780820151818401526020810190506101f6565b50505050905090810190601f16801561023e5780820380516001836020036101000a031916815260200191505b50838103825284818151815260200191508051906020019060200280838360005b8381101561027a57808201518184015260208101905061025f565b5050505090500194505050505060405180910390f35b34801561029c57600080fd5b5061036a600480360360608110156102b357600080fd5b8101908080359060200190929190803590602001906401000000008111156102da57600080fd5b8201836020820111156102ec57600080fd5b8035906020019184600183028401116401000000008311171561030e57600080fd5b91908080601f016020809104026020016040519081016040528093929190818152602001838380828437600081840152601f19601f82011690508083019250505050505050919291929080359060200190929190505050610af9565b604051808215151515815260200191505060405180910390f35b34801561039057600080fd5b506103c7600480360360408110156103a757600080fd5b810190808035906020019092919080359060200190929190505050610bb4565b604051808060200184815260200183151515158152602001828103825285818151815260200191508051906020019080838360005b838110156104175780820151818401526020810190506103fc565b50505050905090810190601f1680156104445780820380516001836020036101000a031916815260200191505b5094505050505060405180910390f35b34801561046057600080fd5b506104976004803603604081101561047757600080fd5b810190808035906020019092919080359060200190929190505050610cdd565b604051808215151515815260200191505060405180910390f35b3480156104bd57600080fd5b506104ea600480360360208110156104d457600080fd5b8101908080359060200190929190505050610d73565b604051808215151515815260200191505060405180910390f35b34801561051057600080fd5b506105d46004803603604081101561052757600080fd5b81019080803590602001909291908035906020019064010000000081111561054e57600080fd5b82018360208201111561056057600080fd5b8035906020019184600183028401116401000000008311171561058257600080fd5b91908080601f016020809104026020016040519081016040528093929190818152602001838380828437600081840152601f19601f820116905080830192505050505050509192919290505050610e4b565b604051808060200180602001838103835285818151815260200191508051906020019080838360005b838110156106185780820151818401526020810190506105fd565b50505050905090810190601f1680156106455780820380516001836020036101000a031916815260200191505b50838103825284818151815260200191508051906020019060200280838360005b83811015610681578082015181840152602081019050610666565b5050505090500194505050505060405180910390f35b3480156106a357600080fd5b50610771600480360360608110156106ba57600080fd5b810190808035906020019092919080359060200190929190803590602001906401000000008111156106eb57600080fd5b8201836020820111156106fd57600080fd5b8035906020019184600183028401116401000000008311171561071f57600080fd5b91908080601f016020809104026020016040519081016040528093929190818152602001838380828437600081840152601f19601f820116905080830192505050505050509192919290505050610f80565b6040518080602001828103825283818151815260200191508051906020019080838360005b838110156107b1578082015181840152602081019050610796565b50505050905090810190601f1680156107de5780820380516001836020036101000a031916815260200191505b509250505060405180910390f35b3480156107f857600080fd5b506108256004803603602081101561080f57600080fd5b810190808035906020019092919050505061106d565b6040518080602001828103825283818151815260200191508051906020019060200280838360005b8381101561086857808201518184015260208101905061084d565b505050509050019250505060405180910390f35b34801561088857600080fd5b506108bf6004803603604081101561089f57600080fd5b81019080803590602001909291908035906020019092919050505061119e565b604051808215151515815260200191505060405180910390f35b3480156108e557600080fd5b506108ee611229565b6040518080602001828103825283818151815260200191508051906020019060200280838360005b83811015610931578082015181840152602081019050610916565b505050509050019250505060405180910390f35b6000806001600080549050019050600060016000838152602001908152602001600020905083816000019080519060200190610982929190611281565b506000829080600181540180825580915050906001820390600052602060002001600090919290919091505550600192505050919050565b6060806109c5611301565b60016000858152602001908152602001600020604080519081016040529081600082018054600181600116156101000203166002900480601f016020809104026020016040519081016040528092919081815260200182805460018160011615610100020316600290048015610a7c5780601f10610a5157610100808354040283529160200191610a7c565b820191906000526020600020905b815481529060010190602001808311610a5f57829003601f168201915b5050505050815260200160018201805480602002602001604051908101604052809291908181526020018280548015610ad457602002820191906000526020600020905b815481526020019060010190808311610ac0575b5050505050815250509050806000015181602001518191508090509250925050915091565b6000806001806000878152602001908152602001600020600101805490500190506000600160008781526020019081526020016000206002016000838152602001908152602001600020905084816000019080519060200190610b5d929190611281565b50838160010181905550600160008781526020019081526020016000206001018290806001815401808255809150509060018203906000526020600020016000909192909190915055506001925050509392505050565b6060600080610bc161131b565b60016000878152602001908152602001600020600201600086815260200190815260200160002060606040519081016040529081600082018054600181600116156101000203166002900480601f016020809104026020016040519081016040528092919081815260200182805460018160011615610100020316600290048015610c8d5780601f10610c6257610100808354040283529160200191610c8d565b820191906000526020600020905b815481529060010190602001808311610c7057829003601f168201915b50505050508152602001600182015481526020016002820160009054906101000a900460ff1615151515815250509050806000015181602001518260400151829250935093509350509250925092565b600060016000848152602001908152602001600020600201600083815260200190815260200160002060008082016000610d17919061133f565b60018201600090556002820160006101000a81549060ff021916905550506001600084815260200190815260200160002060010160018303815481101515610d5b57fe5b90600052602060002001600090556001905092915050565b6000806001600084815260200190815260200160002060010180549050905060008090505b81811015610de557610dd7846001600087815260200190815260200160002060010183815481101515610dc757fe5b9060005260206000200154610cdd565b508080600101915050610d98565b506020604051908101604052806000815250600160008581526020019081526020016000206000019080519060200190610e20929190611281565b50600060018403815481101515610e3357fe5b90600052602060002001600090556001915050919050565b606080600060016000868152602001908152602001600020905083816000019080519060200190610e7d929190611281565b508060000181600101818054600181600116156101000203166002900480601f016020809104026020016040519081016040528092919081815260200182805460018160011615610100020316600290048015610f1b5780601f10610ef057610100808354040283529160200191610f1b565b820191906000526020600020905b815481529060010190602001808311610efe57829003601f168201915b5050505050915080805480602002602001604051908101604052809291908181526020018280548015610f6d57602002820191906000526020600020905b815481526020019060010190808311610f59575b5050505050905092509250509250929050565b60606000600160008681526020019081526020016000206002016000858152602001908152602001600020905082816000019080519060200190610fc5929190611281565b50806000018054600181600116156101000203166002900480601f01602080910402602001604051908101604052809291908181526020018280546001816001161561010002031660029004801561105e5780601f106110335761010080835404028352916020019161105e565b820191906000526020600020905b81548152906001019060200180831161104157829003601f168201915b50505050509150509392505050565b6060611077611301565b60016000848152602001908152602001600020604080519081016040529081600082018054600181600116156101000203166002900480601f01602080910402602001604051908101604052809291908181526020018280546001816001161561010002031660029004801561112e5780601f106111035761010080835404028352916020019161112e565b820191906000526020600020905b81548152906001019060200180831161111157829003601f168201915b505050505081526020016001820180548060200260200160405190810160405280929190818152602001828054801561118657602002820191906000526020600020905b815481526020019060010190808311611172575b50505050508152505090508060200151915050919050565b60008060016000858152602001908152602001600020600201600084815260200190815260200160002060020160009054906101000a900460ff169050801560016000868152602001908152602001600020600201600085815260200190815260200160002060020160006101000a81548160ff021916908315150217905550600191505092915050565b6060600080548060200260200160405190810160405280929190818152602001828054801561127757602002820191906000526020600020905b815481526020019060010190808311611263575b5050505050905090565b828054600181600116156101000203166002900490600052602060002090601f016020900481019282601f106112c257805160ff19168380011785556112f0565b828001600101855582156112f0579182015b828111156112ef5782518255916020019190600101906112d4565b5b5090506112fd9190611387565b5090565b604080519081016040528060608152602001606081525090565b60606040519081016040528060608152602001600081526020016000151581525090565b50805460018160011615610100020316600290046000825580601f106113655750611384565b601f0160209004906000526020600020908101906113839190611387565b5b50565b6113a991905b808211156113a557600081600090555060010161138d565b5090565b9056fea165627a7a72305820d6bdb786bc14fc6b1005100333679aa98c161d376f1f77ef4e16a97e0b37c2290029",
  "source": "pragma solidity >=0.4.21 <=0.6.0;\n\n\n\ncontract TodoList {\n\tstruct Item {\n\t\tstring description;\n\t\tuint256 timestamp;\n\t\tbool done;\n\t}\n\n\tstruct List {\n\t\tstring title;\n\t\tuint[] itemIDs;\n\t\tmapping(uint => Item) Items;\n\t}\n\n\tuint[] listIDs;\n\tmapping (uint => List) Lists;\n\n\tfunction newList(string memory _title) public returns(bool){\n\t\tuint new_id = listIDs.length + 1;\n\t\tList storage list = Lists[new_id];\n\n\t\tlist.title = _title;\n\t\tlistIDs.push(new_id);\n\t\treturn (true);\n\t}\n\n\tfunction newItem(uint _listID, string memory _description, uint256 _timestamp) public returns(bool){\n\t\tuint new_id = Lists[_listID].itemIDs.length + 1;\n\t\tItem storage new_item = Lists[_listID].Items[new_id];\n\n\t\tnew_item.description = _description;\n\t\tnew_item.timestamp = _timestamp;\n\t\tLists[_listID].itemIDs.push(new_id);\n\t\treturn (true);\n\t}\n\n\tfunction getListIDs() public view returns (uint[] memory){\n\t\treturn listIDs;\n\t}\n\n\tfunction getList(uint _id) public view returns(string memory, uint[] memory){\n\t\tList memory list = Lists[_id];\n\t\treturn(list.title, list.itemIDs);\n\t}\n\n\tfunction getItemIDs(uint _listID) public view returns(uint[] memory){\n\t\tList memory list = Lists[_listID];\n\t\treturn (list.itemIDs);\n\t}\n\n\tfunction getItem(uint _listID, uint _itemID) public view returns(string memory, uint256, bool){\n\t\tItem memory item = Lists[_listID].Items[_itemID];\n\t\treturn (item.description, item.timestamp, item.done);\n\t}\n\n\tfunction updateList(uint _id, string memory _title) public returns(string memory, uint[] memory){\n\t\tList storage list = Lists[_id];\n\t\tlist.title = _title;\n\t\treturn (list.title, list.itemIDs);\n\t}\n\n\tfunction updateItem(uint list_id, uint item_id, string memory _description) public returns (string memory){\n\t\tItem storage item = Lists[list_id].Items[item_id];\n\t\titem.description = _description;\n\t\treturn(item.description);\n\t}\n\n\tfunction deleteItem(uint _list_id, uint _item_id) public returns(bool){\n\t\tdelete Lists[_list_id].Items[_item_id];\n\t\tdelete Lists[_list_id].itemIDs[_item_id-1];\n\n\t\treturn true;\n\t}\n\n\n\tfunction deleteList(uint _ID) public returns(bool){\n\t\tuint listLength = Lists[_ID].itemIDs.length;\n\t\tfor(uint i = 0; i < listLength; i++){\n\t\t\tdeleteItem(_ID, Lists[_ID].itemIDs[i]);\n\t\t}\n\t\tLists[_ID].title = \"\";\n\t\tdelete listIDs[_ID-1];\n\t\treturn true;\n\t}\n\n\tfunction toggleItem(uint _list_id, uint _item_id) public returns(bool){\n\t\tbool status = Lists[_list_id].Items[_item_id].done;\n\t\tLists[_list_id].Items[_item_id].done = !status;\n\t\treturn true;\n\t}\n\n\n\n}",
  "sourcePath": "/home/wyvern/Documents/Codes/Python/dapp_todo_py/contracts/TodoList.sol",
  "compiler": {
    "name": "solc",
    "version": "0.5.0+commit.1d4f565a.Emscripten.clang"
  },
  "schemaVersion": "3.0.9",
  "updatedAt": "2019-05-31T07:34:41.376Z",
  "devdoc": {
    "methods": {}
  },
  "userdoc": {
    "methods": {}
  }
}